{
  "contractName": "agriculture",
  "abi": [
    {
      "inputs": [],
      "stateMutability": "nonpayable",
      "type": "constructor"
    },
    {
      "inputs": [
        {
          "internalType": "string",
          "name": "username",
          "type": "string"
        },
        {
          "internalType": "string",
          "name": "password",
          "type": "string"
        }
      ],
      "name": "addUser",
      "outputs": [],
      "stateMutability": "nonpayable",
      "type": "function"
    },
    {
      "inputs": [],
      "name": "viewUsers",
      "outputs": [
        {
          "internalType": "string[]",
          "name": "",
          "type": "string[]"
        },
        {
          "internalType": "string[]",
          "name": "",
          "type": "string[]"
        }
      ],
      "stateMutability": "view",
      "type": "function"
    },
    {
      "inputs": [
        {
          "internalType": "uint256",
          "name": "value",
          "type": "uint256"
        }
      ],
      "name": "precisionForSoilMoisture",
      "outputs": [
        {
          "internalType": "uint256",
          "name": "",
          "type": "uint256"
        }
      ],
      "stateMutability": "pure",
      "type": "function"
    },
    {
      "inputs": [
        {
          "internalType": "uint256",
          "name": "value",
          "type": "uint256"
        }
      ],
      "name": "precisionForLightIntensity",
      "outputs": [
        {
          "internalType": "uint256",
          "name": "",
          "type": "uint256"
        }
      ],
      "stateMutability": "pure",
      "type": "function"
    },
    {
      "inputs": [
        {
          "internalType": "uint256",
          "name": "value",
          "type": "uint256"
        }
      ],
      "name": "precisionForHumidity",
      "outputs": [
        {
          "internalType": "uint256",
          "name": "",
          "type": "uint256"
        }
      ],
      "stateMutability": "pure",
      "type": "function"
    },
    {
      "inputs": [
        {
          "internalType": "uint256",
          "name": "value",
          "type": "uint256"
        }
      ],
      "name": "precisionForRainfall",
      "outputs": [
        {
          "internalType": "uint256",
          "name": "",
          "type": "uint256"
        }
      ],
      "stateMutability": "pure",
      "type": "function"
    },
    {
      "inputs": [
        {
          "internalType": "uint256",
          "name": "value",
          "type": "uint256"
        }
      ],
      "name": "precisionForTemperature",
      "outputs": [
        {
          "internalType": "uint256",
          "name": "",
          "type": "uint256"
        }
      ],
      "stateMutability": "pure",
      "type": "function"
    }
  ],
  "bytecode": "0x608060405234801561001057600080fd5b50610db7806100206000396000f3fe608060405234801561001057600080fd5b506004361061007d5760003560e01c8063321ee0281161005b578063321ee028146100ed578063815f5e941461011d578063849c818a1461014d578063f319d6ad1461017d5761007d565b8063079eaf341461008257806314ebdb791461009e57806326b98f21146100bd575b600080fd5b61009c600480360381019061009791906107d3565b6101ad565b005b6100a6610288565b6040516100b492919061098c565b60405180910390f35b6100d760048036038101906100d291906109f9565b61043d565b6040516100e49190610a35565b60405180910390f35b610107600480360381019061010291906109f9565b6104c7565b6040516101149190610a35565b60405180910390f35b610137600480360381019061013291906109f9565b610533565b6040516101449190610a35565b60405180910390f35b610167600480360381019061016291906109f9565b6105bf565b6040516101749190610a35565b60405180910390f35b610197600480360381019061019291906109f9565b61062b565b6040516101a49190610a35565b60405180910390f35b6002826040516101bd9190610a8c565b908152602001604051809103902060009054906101000a900460ff16156101e357600080fd5b6000829080600181540180825580915050600190039060005260206000200160009091909190915090816102179190610caf565b5060018190806001815401808255809150506001900390600052602060002001600090919091909150908161024c9190610caf565b50600160028360405161025f9190610a8c565b908152602001604051809103902060006101000a81548160ff0219169083151502179055505050565b6060806000600181805480602002602001604051908101604052809291908181526020016000905b8282101561035c5783829060005260206000200180546102cf90610ad2565b80601f01602080910402602001604051908101604052809291908181526020018280546102fb90610ad2565b80156103485780601f1061031d57610100808354040283529160200191610348565b820191906000526020600020905b81548152906001019060200180831161032b57829003601f168201915b5050505050815260200190600101906102b0565b50505050915080805480602002602001604051908101604052809291908181526020016000905b8282101561042f5783829060005260206000200180546103a290610ad2565b80601f01602080910402602001604051908101604052809291908181526020018280546103ce90610ad2565b801561041b5780601f106103f05761010080835404028352916020019161041b565b820191906000526020600020905b8154815290600101906020018083116103fe57829003601f168201915b505050505081526020019060010190610383565b505050509050915091509091565b6000600a82101561045157600190506104c2565b600a821180156104615750601482105b1561046f57600290506104c2565b60148211801561047f5750601e82105b1561048d57600390506104c2565b601e8211801561049d5750602382105b156104ab57600490506104c2565b60238211156104bd57600590506104c2565b600690505b919050565b600060058210156104db576001905061052e565b6005821180156104eb5750600a82105b156104f9576002905061052e565b600a821180156105095750601082105b15610517576003905061052e565b6010821115610529576004905061052e565b600590505b919050565b60006103e882118015610547575061040082105b1561055557600190506105ba565b6103208211801561056757506103e882105b1561057557600290506105ba565b61025882118015610587575061032082105b1561059557600390506105ba565b610190821180156105a7575061025882105b156105b557600490506105ba565b600590505b919050565b6000610320821180156105d3575061040082105b156105e15760019050610626565b610258821180156105f3575061032082105b156106015760029050610626565b61015482118015610613575061025882105b156106215760039050610626565b600490505b919050565b6000603282101561063f5760019050610674565b60328211801561064f5750603c82105b1561065d5760029050610674565b603c82111561066f5760039050610674565b600490505b919050565b6000604051905090565b600080fd5b600080fd5b600080fd5b600080fd5b6000601f19601f8301169050919050565b7f4e487b7100000000000000000000000000000000000000000000000000000000600052604160045260246000fd5b6106e082610697565b810181811067ffffffffffffffff821117156106ff576106fe6106a8565b5b80604052505050565b6000610712610679565b905061071e82826106d7565b919050565b600067ffffffffffffffff82111561073e5761073d6106a8565b5b61074782610697565b9050602081019050919050565b82818337600083830152505050565b600061077661077184610723565b610708565b90508281526020810184848401111561079257610791610692565b5b61079d848285610754565b509392505050565b600082601f8301126107ba576107b961068d565b5b81356107ca848260208601610763565b91505092915050565b600080604083850312156107ea576107e9610683565b5b600083013567ffffffffffffffff81111561080857610807610688565b5b610814858286016107a5565b925050602083013567ffffffffffffffff81111561083557610834610688565b5b610841858286016107a5565b9150509250929050565b600081519050919050565b600082825260208201905092915050565b6000819050602082019050919050565b600081519050919050565b600082825260208201905092915050565b60005b838110156108b1578082015181840152602081019050610896565b60008484015250505050565b60006108c882610877565b6108d28185610882565b93506108e2818560208601610893565b6108eb81610697565b840191505092915050565b600061090283836108bd565b905092915050565b6000602082019050919050565b60006109228261084b565b61092c8185610856565b93508360208202850161093e85610867565b8060005b8581101561097a578484038952815161095b85826108f6565b94506109668361090a565b925060208a01995050600181019050610942565b50829750879550505050505092915050565b600060408201905081810360008301526109a68185610917565b905081810360208301526109ba8184610917565b90509392505050565b6000819050919050565b6109d6816109c3565b81146109e157600080fd5b50565b6000813590506109f3816109cd565b92915050565b600060208284031215610a0f57610a0e610683565b5b6000610a1d848285016109e4565b91505092915050565b610a2f816109c3565b82525050565b6000602082019050610a4a6000830184610a26565b92915050565b600081905092915050565b6000610a6682610877565b610a708185610a50565b9350610a80818560208601610893565b80840191505092915050565b6000610a988284610a5b565b915081905092915050565b7f4e487b7100000000000000000000000000000000000000000000000000000000600052602260045260246000fd5b60006002820490506001821680610aea57607f821691505b602082108103610afd57610afc610aa3565b5b50919050565b60008190508160005260206000209050919050565b60006020601f8301049050919050565b600082821b905092915050565b600060088302610b657fffffffffffffffffffffffffffffffffffffffffffffffffffffffffffffffff82610b28565b610b6f8683610b28565b95508019841693508086168417925050509392505050565b6000819050919050565b6000610bac610ba7610ba2846109c3565b610b87565b6109c3565b9050919050565b6000819050919050565b610bc683610b91565b610bda610bd282610bb3565b848454610b35565b825550505050565b600090565b610bef610be2565b610bfa818484610bbd565b505050565b5b81811015610c1e57610c13600082610be7565b600181019050610c00565b5050565b601f821115610c6357610c3481610b03565b610c3d84610b18565b81016020851015610c4c578190505b610c60610c5885610b18565b830182610bff565b50505b505050565b600082821c905092915050565b6000610c8660001984600802610c68565b1980831691505092915050565b6000610c9f8383610c75565b9150826002028217905092915050565b610cb882610877565b67ffffffffffffffff811115610cd157610cd06106a8565b5b610cdb8254610ad2565b610ce6828285610c22565b600060209050601f831160018114610d195760008415610d07578287015190505b610d118582610c93565b865550610d79565b601f198416610d2786610b03565b60005b82811015610d4f57848901518255600182019150602085019450602081019050610d2a565b86831015610d6c5784890151610d68601f891682610c75565b8355505b6001600288020188555050505b50505050505056fea2646970667358221220aa26050a2cc8a1d5adb5a2449dfbb290e49e00f073dae10706b70c0351eb925e64736f6c63430008130033",
  "immutableReferences": {},
  "source": "// SPDX-License-Identifier: MIT\r\npragma solidity >=0.4.22 <0.9.0;\r\n\r\ncontract agriculture {\r\n\r\n  string[] _usernames;\r\n  string[] _passwords;\r\n\r\n  \r\n  mapping(string=>bool) _registeredUsers;\r\n\r\n  constructor() {\r\n  }\r\n\r\n  function addUser(string memory username,string memory password) public {\r\n    require(!_registeredUsers[username]);\r\n\r\n    _usernames.push(username);\r\n    _passwords.push(password);\r\n    _registeredUsers[username]=true;\r\n  }\r\n\r\n  function viewUsers() public view returns(string[] memory,string[] memory) {\r\n    return (_usernames,_passwords);\r\n  }\r\n\r\n  function precisionForSoilMoisture(uint value) public pure returns(uint) {\r\n    if(value>1000 && value<1024) {\r\n      return 1;\r\n    } else if(value>800 && value<1000){\r\n      return 2;\r\n    } else if(value>600 && value<800) {\r\n      return 3;\r\n    } else if(value>400 && value<600) {\r\n      return 4;\r\n    } else {\r\n      return 5;\r\n    }\r\n  }\r\n\r\n  function precisionForLightIntensity(uint value) public pure returns(uint){\r\n    if(value<5){\r\n      return 1;\r\n    } else if(value>5 && value<10){\r\n      return 2;\r\n    } else if(value>10 && value<16){\r\n      return 3;\r\n    } else if(value>16) {\r\n      return 4;\r\n    } else {\r\n      return 5;\r\n    }\r\n  }\r\n\r\n  function precisionForHumidity(uint value) public pure returns(uint){\r\n    if(value<50){\r\n      return 1;\r\n    } else if(value>50 && value<60){\r\n      return 2;\r\n    } else if(value>60){\r\n      return 3;\r\n    } else{\r\n      return 4;\r\n    }\r\n  }\r\n\r\n  function precisionForRainfall(uint value) public pure returns(uint){\r\n    if(value>800 && value<1024){\r\n      return 1;\r\n    } else if(value>600 && value<800){\r\n      return 2;\r\n    } else if(value>340 && value<600){\r\n      return 3;\r\n    } else {\r\n      return 4;\r\n    }\r\n  }\r\n\r\n  function precisionForTemperature(uint value) public pure returns(uint){\r\n    if(value<10){\r\n      return 1;\r\n    } else if(value>10 && value<20){\r\n      return 2;\r\n    } else if(value>20 && value<30){\r\n      return 3;\r\n    } else if(value>30 && value<35){\r\n      return 4;\r\n    } else if(value>35){\r\n      return 5;\r\n    } else {\r\n      return 6;\r\n    }\r\n  }\r\n\r\n}\r\n",
  "sourcePath": "C:\\Users\\Sudheer\\OneDrive\\Desktop\\precision-agriculture-kits\\contracts\\agriculture.sol",
  "compiler": {
    "name": "solc",
    "version": "0.8.19+commit.7dd6d404.Emscripten.clang"
  },
  "schemaVersion": "3.4.16",
  "updatedAt": "2024-03-06T14:27:53.713Z",
  "devdoc": {
    "kind": "dev",
    "methods": {},
    "version": 1
  },
  "userdoc": {
    "kind": "user",
    "methods": {},
    "version": 1
  }
}