{
  "contractName": "RSU",
  "abi": [
    {
      "inputs": [],
      "stateMutability": "nonpayable",
      "type": "constructor"
    },
    {
      "inputs": [
        {
          "internalType": "string",
          "name": "username",
          "type": "string"
        },
        {
          "internalType": "string",
          "name": "password",
          "type": "string"
        }
      ],
      "name": "addUser",
      "outputs": [],
      "stateMutability": "nonpayable",
      "type": "function"
    },
    {
      "inputs": [],
      "name": "viewUsers",
      "outputs": [
        {
          "internalType": "string[]",
          "name": "",
          "type": "string[]"
        },
        {
          "internalType": "string[]",
          "name": "",
          "type": "string[]"
        }
      ],
      "stateMutability": "view",
      "type": "function",
      "constant": true
    }
  ],
  "bytecode": "0x608060405234801561001057600080fd5b506109c1806100206000396000f3fe608060405234801561001057600080fd5b50600436106100365760003560e01c8063079eaf341461003b57806314ebdb7914610057575b600080fd5b61005560048036038101906100509190610460565b610076565b005b61005f610151565b60405161006d929190610619565b60405180910390f35b600282604051610086919061068c565b908152602001604051809103902060009054906101000a900460ff16156100ac57600080fd5b6000829080600181540180825580915050600190039060005260206000200160009091909190915090816100e091906108b9565b5060018190806001815401808255809150506001900390600052602060002001600090919091909150908161011591906108b9565b506001600283604051610128919061068c565b908152602001604051809103902060006101000a81548160ff0219169083151502179055505050565b6060806000600181805480602002602001604051908101604052809291908181526020016000905b82821015610225578382906000526020600020018054610198906106d2565b80601f01602080910402602001604051908101604052809291908181526020018280546101c4906106d2565b80156102115780601f106101e657610100808354040283529160200191610211565b820191906000526020600020905b8154815290600101906020018083116101f457829003601f168201915b505050505081526020019060010190610179565b50505050915080805480602002602001604051908101604052809291908181526020016000905b828210156102f857838290600052602060002001805461026b906106d2565b80601f0160208091040260200160405190810160405280929190818152602001828054610297906106d2565b80156102e45780601f106102b9576101008083540402835291602001916102e4565b820191906000526020600020905b8154815290600101906020018083116102c757829003601f168201915b50505050508152602001906001019061024c565b505050509050915091509091565b6000604051905090565b600080fd5b600080fd5b600080fd5b600080fd5b6000601f19601f8301169050919050565b7f4e487b7100000000000000000000000000000000000000000000000000000000600052604160045260246000fd5b61036d82610324565b810181811067ffffffffffffffff8211171561038c5761038b610335565b5b80604052505050565b600061039f610306565b90506103ab8282610364565b919050565b600067ffffffffffffffff8211156103cb576103ca610335565b5b6103d482610324565b9050602081019050919050565b82818337600083830152505050565b60006104036103fe846103b0565b610395565b90508281526020810184848401111561041f5761041e61031f565b5b61042a8482856103e1565b509392505050565b600082601f8301126104475761044661031a565b5b81356104578482602086016103f0565b91505092915050565b6000806040838503121561047757610476610310565b5b600083013567ffffffffffffffff81111561049557610494610315565b5b6104a185828601610432565b925050602083013567ffffffffffffffff8111156104c2576104c1610315565b5b6104ce85828601610432565b9150509250929050565b600081519050919050565b600082825260208201905092915050565b6000819050602082019050919050565b600081519050919050565b600082825260208201905092915050565b60005b8381101561053e578082015181840152602081019050610523565b60008484015250505050565b600061055582610504565b61055f818561050f565b935061056f818560208601610520565b61057881610324565b840191505092915050565b600061058f838361054a565b905092915050565b6000602082019050919050565b60006105af826104d8565b6105b981856104e3565b9350836020820285016105cb856104f4565b8060005b8581101561060757848403895281516105e88582610583565b94506105f383610597565b925060208a019950506001810190506105cf565b50829750879550505050505092915050565b6000604082019050818103600083015261063381856105a4565b9050818103602083015261064781846105a4565b90509392505050565b600081905092915050565b600061066682610504565b6106708185610650565b9350610680818560208601610520565b80840191505092915050565b6000610698828461065b565b915081905092915050565b7f4e487b7100000000000000000000000000000000000000000000000000000000600052602260045260246000fd5b600060028204905060018216806106ea57607f821691505b6020821081036106fd576106fc6106a3565b5b50919050565b60008190508160005260206000209050919050565b60006020601f8301049050919050565b600082821b905092915050565b6000600883026107657fffffffffffffffffffffffffffffffffffffffffffffffffffffffffffffffff82610728565b61076f8683610728565b95508019841693508086168417925050509392505050565b6000819050919050565b6000819050919050565b60006107b66107b16107ac84610787565b610791565b610787565b9050919050565b6000819050919050565b6107d08361079b565b6107e46107dc826107bd565b848454610735565b825550505050565b600090565b6107f96107ec565b6108048184846107c7565b505050565b5b818110156108285761081d6000826107f1565b60018101905061080a565b5050565b601f82111561086d5761083e81610703565b61084784610718565b81016020851015610856578190505b61086a61086285610718565b830182610809565b50505b505050565b600082821c905092915050565b600061089060001984600802610872565b1980831691505092915050565b60006108a9838361087f565b9150826002028217905092915050565b6108c282610504565b67ffffffffffffffff8111156108db576108da610335565b5b6108e582546106d2565b6108f082828561082c565b600060209050601f8311600181146109235760008415610911578287015190505b61091b858261089d565b865550610983565b601f19841661093186610703565b60005b8281101561095957848901518255600182019150602085019450602081019050610934565b868310156109765784890151610972601f89168261087f565b8355505b6001600288020188555050505b50505050505056fea2646970667358221220c5c74240312e5a46e95c650b0400d1d9a1c272de7022a749168ebe7ea4f5e59664736f6c63430008130033",
  "immutableReferences": {},
  "source": "// SPDX-License-Identifier: MIT\r\npragma solidity >=0.4.22 <0.9.0;\r\n\r\ncontract RSU {\r\n\r\n  string[] _usernames;\r\n  string[] _passwords;\r\n\r\n  \r\n  mapping(string=>bool) _registeredUsers;\r\n\r\n  constructor() {\r\n  }\r\n\r\n  function addUser(string memory username,string memory password) public {\r\n    require(!_registeredUsers[username]);\r\n\r\n    _usernames.push(username);\r\n    _passwords.push(password);\r\n    _registeredUsers[username]=true;\r\n  }\r\n\r\n  function viewUsers() public view returns(string[] memory,string[] memory) {\r\n    return (_usernames,_passwords);\r\n  }\r\n\r\n  // function precisionForSoilMoisture(uint value) public pure returns(uint) {\r\n  //   if(value>1000 && value<1024) {\r\n  //     return 1;\r\n  //   } else if(value>800 && value<1000){\r\n  //     return 2;\r\n  //   } else if(value>600 && value<800) {\r\n  //     return 3;\r\n  //   } else if(value>400 && value<600) {\r\n  //     return 4;\r\n  //   } else {\r\n  //     return 5;\r\n  //   }\r\n  // }\r\n\r\n  // function precisionForLightIntensity(uint value) public pure returns(uint){\r\n  //   if(value<5){\r\n  //     return 1;\r\n  //   } else if(value>5 && value<10){\r\n  //     return 2;\r\n  //   } else if(value>10 && value<16){\r\n  //     return 3;\r\n  //   } else if(value>16) {\r\n  //     return 4;\r\n  //   } else {\r\n  //     return 5;\r\n  //   }\r\n  // }\r\n\r\n  // function precisionForHumidity(uint value) public pure returns(uint){\r\n  //   if(value<50){\r\n  //     return 1;\r\n  //   } else if(value>50 && value<60){\r\n  //     return 2;\r\n  //   } else if(value>60){\r\n  //     return 3;\r\n  //   } else{\r\n  //     return 4;\r\n  //   }\r\n  // }\r\n\r\n  // function precisionForRainfall(uint value) public pure returns(uint){\r\n  //   if(value>800 && value<1024){\r\n  //     return 1;\r\n  //   } else if(value>600 && value<800){\r\n  //     return 2;\r\n  //   } else if(value>340 && value<600){\r\n  //     return 3;\r\n  //   } else {\r\n  //     return 4;\r\n  //   }\r\n  // }\r\n\r\n  // function precisionForTemperature(uint value) public pure returns(uint){\r\n  //   if(value<10){\r\n  //     return 1;\r\n  //   } else if(value>10 && value<20){\r\n  //     return 2;\r\n  //   } else if(value>20 && value<30){\r\n  //     return 3;\r\n  //   } else if(value>30 && value<35){\r\n  //     return 4;\r\n  //   } else if(value>35){\r\n  //     return 5;\r\n  //   } else {\r\n  //     return 6;\r\n  //   }\r\n  // }\r\n\r\n}\r\n",
  "sourcePath": "C:\\Users\\Sudheer\\OneDrive\\Desktop\\Road-Side-Unit-KITS\\contracts\\RSU.sol",
  "compiler": {
    "name": "solc",
    "version": "0.8.19+commit.7dd6d404.Emscripten.clang"
  },
  "schemaVersion": "3.4.16",
  "updatedAt": "2024-03-11T17:01:22.351Z",
  "networkType": "ethereum",
  "devdoc": {
    "kind": "dev",
    "methods": {},
    "version": 1
  },
  "userdoc": {
    "kind": "user",
    "methods": {},
    "version": 1
  }
}